:100000000C9462000C948A000C948A000C948A0070
:100010000C948A000C948A000C948A000C948A0038
:100020000C948A000C948A000C948A000C948A0028
:100030000C948A000C948A000C948A000C948A0018
:100040000C94D5030C948A000C948A000C948A00BA
:100050000C948A000C948A000C948A000C948A00F8
:100060000C948A000C948A000000000024002700F1
:100070002A0000000000250028002B0000000000DE
:1000800023002600290004040404040404040202DA
:100090000202020203030303030301020408102007
:1000A0004080010204081020010204081020000012
:1000B0000008000201000003040700000000000027
:1000C00000002B0511241FBECFEFD8E0DEBFCDBF4F
:1000D00011E0A0E0B1E0EAE2FFE002C005900D927D
:1000E000A435B107D9F721E0A4E5B1E001C01D9224
:1000F000A937B207E1F710E0C2E6D0E004C02197CB
:10010000FE010E944A05C136D107C9F70E941F04AB
:100110000C9493070C940000CF92DF92EF92FF9221
:100120000F931F93CF93DF936C017A018B01C0E093
:10013000D0E0CE15DF0589F0D8016D918D01D60193
:10014000ED91FC910190F081E02DC6010995892B7C
:1001500011F47E0102C02196ECCFC701DF91CF914F
:100160001F910F91FF90EF90DF90CF900895833013
:1001700081F028F4813099F08230A1F00895873021
:10018000A9F08830B9F08430D1F4809180008F7D5F
:1001900003C0809180008F7780938000089584B59C
:1001A0008F7702C084B58F7D84BD08958091B000A3
:1001B0008F7703C08091B0008F7D8093B000089549
:1001C000CF93DF93282F30E0F901E255FF4F849160
:1001D000F901E656FF4FD491F901EA57FF4FC49158
:1001E000CC2391F081110E94B700EC2FF0E0EE0FCC
:1001F000FF1FE458FF4FA591B491EC91ED2381E0EE
:1002000090E021F480E002C080E090E0DF91CF91A7
:1002100008951F93CF93DF93282F30E0F901E25523
:10022000FF4F8491F901E656FF4FD491F901EA5747
:10023000FF4FC491CC23C9F0162F81110E94B70043
:10024000EC2FF0E0EE0FFF1FEE58FF4FA591B49199
:100250008FB7F894111105C09C91ED2FE095E9231B
:1002600002C0EC91ED2BEC938FBFDF91CF911F91EA
:100270000895CF93DF9390E0FC01E656FF4F249161
:10028000FC01EA57FF4F8491882361F190E0880FC9
:10029000991FFC01E859FF4FC591D491FC01EE581C
:1002A000FF4FA591B491611109C09FB7F89488815F
:1002B000209582238883EC912E230BC0623061F459
:1002C0009FB7F8943881822F809583238883EC919F
:1002D0002E2B2C939FBF06C08FB7F894E8812E2B4E
:1002E00028838FBFDF91CF9108953FB7F894809115
:1002F000590190915A01A0915B01B0915C0126B522
:10030000A89B05C02F3F19F00196A11DB11D3FBF4D
:10031000BA2FA92F982F8827820F911DA11DB11DDB
:10032000BC01CD0142E0660F771F881F991F4A95D7
:10033000D1F708958F929F92AF92BF92CF92DF92A2
:10034000EF92FF926B017C010E9475014B015C01F1
:10035000C114D104E104F104F1F00E947501DC0143
:10036000CB0188199909AA09BB09883E9340A105C8
:10037000B10570F321E0C21AD108E108F10888EE56
:10038000880E83E0981EA11CB11CC114D104E104A5
:10039000F10419F7DDCFFF90EF90DF90CF90BF9081
:1003A000AF909F908F900895CF93DF93EC0160E022
:1003B0008E810E94090161E08E810E94090160E046
:1003C0008E810E9409018BE891E00197F1F7DF919E
:1003D000CF910895CF92DF92EF92FF920F931F93E8
:1003E000CF93DF937C016C0187E0C80ED11CC0E085
:1003F000D0E0062F10E0B8010C2E02C0759567956D
:100400000A94E2F76170F60181916F010E9409017F
:100410002196C430D10579F7C701DF91CF911F91A3
:100420000F91FF90EF90DF90CF900C94D401CF927A
:10043000DF92EF92FF920F931F93CF93DF93EC0124
:10044000F62E642F8C810E9409018D818F3F19F057
:1004500060E00E9409018F850F2D10E084FF25C008
:100460006E0187E0C80ED11CE12CF12CB8010E2CD6
:1004700002C0759567950A94E2F76170F601819163
:100480006F010E940901FFEFEF1AFF0A88E0E816EA
:10049000F10461F7CE01DF91CF911F910F91FF9091
:1004A000EF90DF90CF900C94D401B80184E0759563
:1004B00067958A95E1F7CE010E94EA016F2DCE0182
:1004C000DF91CF911F910F91FF90EF90DF90CF9030
:1004D0000C94EA0141E00E94170281E090E0089547
:1004E00040E00C94170261E00E9470028BE39FE1F0
:1004F0000197F1F70895EF92FF920F931F93CF9317
:10050000DF93EC01623018F08F8588608F876B8BEA
:100510001C8A80E48D8B80E18E8B80E58F8B61E07F
:100520008C810E9439018D818F3F19F061E00E941A
:10053000390161E08E810E9439017E0187E0E80E79
:10054000F11C00E010E08F8584FD03C084E090E0A2
:1005500002C088E090E0081719074CF461E0F70149
:1005600081917F010E9439010F5F1F4FECCF8BE318
:100570009DE00197F1F760E08C810E94090160E045
:100580008E810E9409018D818F3F19F060E00E94E9
:1005900009016F8564FD1DC063E0CE010E94EA0180
:1005A0000BE416E4C8010197F1F763E0CE010E9465
:1005B000EA01C8010197F1F763E0CE010E94EA0168
:1005C00083E592E00197F1F762E0CE010E94EA0133
:1005D00016C06062CE010E9470028BE496E401971F
:1005E000F1F76F856062CE010E94700283E592E0B0
:1005F0000197F1F76F856062CE010E9470026F85EE
:100600006062CE010E94700284E0888B6CE0CE01B3
:100610000E947002CE010E94730282E0898B66E024
:10062000CE01DF91CF911F910F91FF90EF900C942D
:100630007002CF93DF93EC018DE591E00E9473028D
:1006400062E08DE591E00E947B024C815D816881D2
:1006500079818DE591E00E948C0064EF71E080E08B
:1006600090E00E949A01C0E1D0E06CE18DE591E05C
:100670000E9470026AEF70E080E090E00E949A01B0
:10068000219799F7C0E1D0E068E18DE591E00E9403
:1006900070026AEF70E080E090E00E949A0121977A
:1006A00099F7DF91CF9108950F931F93CF93DF9325
:1006B00000D0CDB7DEB78C018DE591E04A83698328
:1006C0000E9473024A816981443008F043E08091BE
:1006D0007001481710F04FEF480FE42FF0E0E35A95
:1006E000FE4F9489690F60688DE591E00E94700269
:1006F000F80144815581608171818DE591E00F9011
:100700000F90DF91CF911F910F910C948C000E945C
:100710004707EF92FF920F931F93CF93DF93EC0164
:10072000198218821B821A821D821C826115710532
:10073000A9F17B01FB0101900020E9F731978F01BE
:10074000061B170BB8016F5F7F4F80E090E00E949F
:100750007D06009759F0998388831B830A832C8137
:100760003D81232B81F4FC0110820DC08881998189
:10077000009711F00E94E505198218821D821C82E3
:100780001B821A820BC01D830C83B701DF91CF91AE
:100790001F910F91FF90EF900C945507DF91CF912F
:1007A0001F910F91FF90EF9008951F920F920FB637
:1007B0000F9211242F933F938F939F93AF93BF93E7
:1007C0008091550190915601A0915701B091580127
:1007D0003091540123E0230F2D3720F40196A11D01
:1007E000B11D05C026E8230F0296A11DB11D20935F
:1007F00054018093550190935601A0935701B093F3
:1008000058018091590190915A01A0915B01B091DA
:100810005C010196A11DB11D8093590190935A016D
:10082000A0935B01B0935C01BF91AF919F918F91B9
:100830003F912F910F900FBE0F901F901895CF935F
:10084000DF9300D000D000D0CDB7DEB7789484B568
:10085000826084BD84B5816084BD85B5826085BDBC
:1008600085B5816085BD80916E00816080936E004A
:10087000109281008091810082608093810080913C
:1008800081008160809381008091800081608093ED
:1008900080008091B10084608093B1008091B000AD
:1008A00081608093B00080917A00846080937A00A8
:1008B00080917A00826080937A0080917A008160D2
:1008C00080937A0080917A00806880937A001092F9
:1008D000C10062E08AE00E94390162E08BE00E9480
:1008E000390162E08CE00E94390162E08DE591E01F
:1008F0000E947B0260E171E0CE0101960E948903B3
:10090000CE0101960E94190389819A810E94E50512
:1009100068EE73E080E090E00E949A018DE591E03E
:100920000E94730200E010E0EE24E394F12C92E0C8
:10093000C92ED12C23E0A22EB12C8AE00E94E00027
:10094000019721F0F0920101E09200016AEF70E05E
:1009500080E090E00E949A018BE00E94E000019705
:1009600021F0D0920101C09200016AEF70E080E0B6
:1009700090E00E949A018CE00E94E000019721F033
:10098000B0920101A09200016AEF70E080E090E077
:100990000E949A018091000190910101823091059D
:1009A00021F18330910509F441C0019709F04CC051
:1009B00068E171E0CE0101960E94890340E050E0B9
:1009C00060E070E0CE0101960E94540389819A8113
:1009D0000E94E50567E271E0CE0101960E9489035D
:1009E00041E050E065E070E01CC06DE271E0CE01D6
:1009F00001960E94890340E050E065E070E0CE017E
:100A000001960E94540389819A810E94E50566E35C
:100A100071E0CE0101960E94890341E050E062E05E
:100A200070E0CE0101960E9454030AC064E471E0B4
:100A3000CE0101960E948903CE0101960E941903FE
:100A400089819A810E94E5050115110509F475CF88
:100A50000E94000072CFEDE5F1E0138212828CE07B
:100A600091E09183808389E084838FEF858388E0A0
:100A7000868387E0878386E0808785E0818784E0BE
:100A800082871386148615861686178661E0CF0145
:100A90000C947B02EE0FFF1F0590F491E02D09945A
:100AA000CF93DF938230910510F482E090E0E091E3
:100AB0007701F091780120E030E0C0E0D0E030979D
:100AC00011F14081518148175907C0F04817590763
:100AD00061F482819381209719F09B838A832BC0D4
:100AE000909378018093770126C02115310519F084
:100AF0004217530718F49A01BE01DF01EF0102808B
:100B0000F381E02DDCCF2115310509F1281B390BCC
:100B10002430310590F412968D919C9113976115B4
:100B2000710521F0FB019383828304C090937801C7
:100B300080937701FD01329644C0FD01E20FF31F5F
:100B400081939193225031092D933C933AC0209187
:100B5000750130917601232B41F4209104013091ED
:100B600005013093760120937501209102013091A7
:100B700003012115310541F42DB73EB7409106011F
:100B800050910701241B350BE0917501F09176011E
:100B9000E217F307A0F42E1B3F0B2817390778F054
:100BA000AC014E5F5F4F2417350748F04E0F5F1FB3
:100BB00050937601409375018193919302C0E0E0D8
:100BC000F0E0CF01DF91CF9108950F931F93CF9362
:100BD000DF93009709F48CC0FC01329713821282D4
:100BE00000917701109178010115110581F42081A0
:100BF0003181820F931F2091750130917601281762
:100C0000390779F5F0937601E093750171C0D80149
:100C100040E050E0AE17BF0750F412962D913C9182
:100C20001397AD012115310509F1D901F3CF9D01CC
:100C3000DA013383228360817181860F971F8217C7
:100C4000930769F4EC0128813981260F371F2E5F45
:100C50003F4F318320838A819B8193838283452BFD
:100C600029F4F0937801E093770142C01396FC9346
:100C7000EE931297ED01499159919E01240F351F72
:100C8000E217F30771F480819181840F951F02961A
:100C900011969C938E938281938113969C938E934D
:100CA0001297E0E0F0E0D80112968D919C91139795
:100CB000009719F0F8018C01F6CF8D919C91980165
:100CC0002E5F3F4F820F931F209175013091760167
:100CD0002817390769F4309729F410927801109297
:100CE000770102C01382128210937601009375017E
:100CF000DF91CF911F910F910895A0E0B0E0E3E85C
:100D0000F6E00C946007EC01009721F4CB010E94FF
:100D10005005B8C0FC01E60FF71F9C0122503109B5
:100D2000E217F30708F4ACC0D9010D911C9111979B
:100D300006171707B0F00530110508F49FC0C80169
:100D400004978617970708F499C002501109061BEB
:100D5000170B019311936D937C93CF010E94E505CE
:100D60008DC05B01A01AB10A4C01800E911EA091AA
:100D70007701B091780140E050E0E12CF12C109720
:100D800009F44AC0A815B905D1F56D907C9011976A
:100D9000630182E0C80ED11CCA14DB0480F1A301F8
:100DA0004A195B096A0182E0C80ED11C1296BC90F8
:100DB00012971396AC91B5E0CB16D10440F0B282F5
:100DC000A38351834083D9016D937C930AC00E5F46
:100DD0001F4FC301800F911FF90191838083EB2D79
:100DE000FA2FE114F10431F0D7011396FC93EE933E
:100DF000129744C0F0937801E09377013FC08D9142
:100E00009C9111974817590708F4AC017D0112967F
:100E10000D90BC91A02DB3CF80917501909176017A
:100E200088159905E1F446175707C8F48091020127
:100E300090910301009741F48DB79EB74091060150
:100E400050910701841B950BE817F907C8F4F0933C
:100E50007601E0937501F901718360830FC0CB01C6
:100E60000E9450057C01009759F0A801BE010E9424
:100E70004C07CE010E94E505C70104C0CE0102C0A7
:100E800080E090E0CDB7DEB7EEE00C947C0781E027
:100E900090E0F8940C949307FB01DC0102C00190F0
:100EA0000D9241505040D8F70895FB01DC010190AC
:100EB0000D920020E1F708952F923F924F925F929A
:100EC0006F927F928F929F92AF92BF92CF92DF925A
:100ED000EF92FF920F931F93CF93DF93CDB7DEB7BF
:100EE000CA1BDB0B0FB6F894DEBF0FBECDBF099453
:100EF0002A88398848885F846E847D848C849B84AA
:100F0000AA84B984C884DF80EE80FD800C811B81B7
:100F1000AA81B981CE0FD11D0FB6F894DEBF0FBEE6
:0A0F2000CDBFED010895F894FFCF56
:100F2A000100000079018000000000006A028C00C4
:100F3A0057656C636F6D6500507265737320456EFB
:100F4A0074657220546F005374617274005345546F
:100F5A0054494E475300454E54455220746F20530E
:100F6A004156450053572056657273696F6E20319A
:040F7A002E31000014
:00000001FF
