:100000000C945D000C9485000C9485000C94850084
:100010000C9485000C9485000C9485000C9485004C
:100020000C9485000C9485000C9485000C9485003C
:100030000C9485000C9485000C9485000C9485002C
:100040000C94D1020C9485000C9485000C948500CE
:100050000C9485000C9485000C9485000C9485000C
:100060000C9485000C94850000000008000201003B
:100070000003040700000000000000000000000072
:10008000250028002B0000000000240027002A0083
:10009000040404040404040402020202020203032E
:1000A0000303030301020408102040800102040836
:1000B0001020010204081020E50311241FBECFEF19
:1000C000D8E0DEBFCDBF11E0A0E0B1E0E2E2F8E0B1
:1000D00002C005900D92A233B107D9F721E0A2E347
:1000E000B1E001C01D92A335B207E1F710E0CDE504
:1000F000D0E004C02197FE010E940404CC35D10752
:10010000C9F70E941B030C940F040C94000090E0AC
:10011000FC01EC55FF4F2491FC01E057FF4F849107
:10012000882399F090E0880F991FFC01EA57FF4F50
:10013000A591B491FC01E458FF4F859194918FB73C
:10014000F894EC91E22BEC938FBF0895CF92DF925D
:10015000EF92FF920F931F93CF93DF936C017A017D
:100160008B01C0E0D0E0CE15DF0589F0D8016D919C
:100170008D01D601ED91FC910190F081E02DC60139
:100180000995892B11F47E0102C02196ECCFC7019D
:10019000DF91CF911F910F91FF90EF90DF90CF9063
:1001A000089590E0FC01E859FF4F3491FC01EC55B3
:1001B000FF4F2491FC01E057FF4FE491EE2309F437
:1001C0003BC0332339F1333091F038F43130A9F0AA
:1001D000323001F584B58F7D12C0373091F0383060
:1001E000A1F03430B9F4809180008F7D03C08091FC
:1001F00080008F77809380000DC084B58F7784BD99
:1002000009C08091B0008F7703C08091B0008F7DCE
:100210008093B000F0E0EE0FFF1FE458FF4FA59170
:10022000B4918FB7F894EC91611103C020952E23FF
:1002300001C02E2B2C938FBF08953FB7F894809167
:10024000370190913801A0913901B0913A0126B55A
:10025000A89B05C02F3F19F00196A11DB11D3FBFFE
:10026000BA2FA92F982F8827820F911DA11DB11D8C
:10027000BC01CD0142E0660F771F881F991F4A9588
:10028000D1F708958F929F92AF92BF92CF92DF9253
:10029000EF92FF926B017C010E941D014B015C01FA
:1002A000C114D104E104F104F1F00E941D01DC014C
:1002B000CB0188199909AA09BB09883E9340A10579
:1002C000B10570F321E0C21AD108E108F10888EE07
:1002D000880E83E0981EA11CB11CC114D104E10456
:1002E000F10419F7DDCFFF90EF90DF90CF90BF9032
:1002F000AF909F908F900895CF93DF93EC0160E0D3
:100300008E810E94D10061E08E810E94D10060E068
:100310008E810E94D1008BE891E00197F1F7DF9187
:10032000CF910895CF92DF92EF92FF920F931F9398
:10033000CF93DF937C016C0187E0C80ED11CC0E035
:10034000D0E0062F10E0B8010C2E02C0759567951D
:100350000A94E2F76170F60181916F010E94D10069
:100360002196C430D10579F7C701DF91CF911F9154
:100370000F91FF90EF90DF90CF900C947C01CF9283
:10038000DF92EF92FF920F931F93CF93DF93EC01D5
:10039000F62E642F8C810E94D1008D818F3F19F041
:1003A00060E00E94D1008F850F2D10E084FF25C0F2
:1003B0006E0187E0C80ED11CE12CF12CB8010E2C87
:1003C00002C0759567950A94E2F76170F601819114
:1003D0006F010E94D100FFEFEF1AFF0A88E0E816D4
:1003E000F10461F7CE01DF91CF911F910F91FF9042
:1003F000EF90DF90CF900C947C01B80184E075956C
:1004000067958A95E1F7CE010E9492016F2DCE018A
:10041000DF91CF911F910F91FF90EF90DF90CF90E0
:100420000C94920141E00E94BF0181E090E00895A8
:1004300040E00C94BF0161E00E9418028BE39FE151
:100440000197F1F70895EF92FF920F931F93CF93C7
:10045000DF93EC01623018F08F8588608F876B8B9B
:100460001C8A80E48D8B80E18E8B80E58F8B8C8164
:100470000E9487008D818F3F11F00E9487008E813E
:100480000E9487007E0187E0E80EF11C00E010E08A
:100490008F8584FD03C084E090E002C088E090E096
:1004A0000817190744F4F70181917F010E94870022
:1004B0000F5F1F4FEDCF8BE39DE00197F1F760E0F9
:1004C0008C810E94D10060E08E810E94D1008D81DC
:1004D0008F3F19F060E00E94D1006F8564FD1DC060
:1004E00063E0CE010E9492010BE416E4C80101977B
:1004F000F1F763E0CE010E949201C8010197F1F784
:1005000063E0CE010E94920183E592E00197F1F74A
:1005100062E0CE010E94920116C06062CE010E948C
:1005200018028BE496E40197F1F76F856062CE01C3
:100530000E94180283E592E00197F1F76F856062EF
:10054000CE010E9418026F856062CE010E941802DF
:1005500084E0888B6CE0CE010E941802CE010E94DC
:100560001B0282E0898B66E0CE01DF91CF911F9163
:100570000F91FF90EF900C941802009769F0FC0126
:1005800001900020E9F73197AF01481B590BBC01DE
:100590008BE391E00C94A60080E090E008950E9427
:1005A0000A041F920F920FB60F9211242F933F93BC
:1005B0008F939F93AF93BF938091330190913401B8
:1005C000A0913501B09136013091320123E0230F23
:1005D0002D3720F40196A11DB11D05C026E8230F7B
:1005E0000296A11DB11D2093320180933301909397
:1005F0003401A0933501B093360180913701909179
:100600003801A0913901B0913A010196A11DB11DA7
:100610008093370190933801A0933901B0933A0148
:10062000BF91AF919F918F913F912F910F900FBEEE
:100630000F901F901895789484B5826084BD84B51E
:10064000816084BD85B5826085BD85B5816085BDCD
:1006500080916E00816080936E0010928100809185
:10066000810082608093810080918100816080930D
:100670008100809180008160809380008091B10032
:1006800084608093B1008091B00081608093B0005D
:1006900080917A00846080937A0080917A008260F1
:1006A00080937A0080917A00816080937A008091B3
:1006B0007A00806880937A001092C10062E08BE338
:1006C00091E00E942302E1E080914E018111E0E07F
:1006D000E195F0E0E55CFE4F64896E5F60688BE356
:1006E00091E00E94180288E091E00E94BD02E09132
:1006F0004E01E23010F4E15001C0E1E0F0E0E55CD1
:10070000FE4F64896E5F60688BE391E00E9418027F
:1007100084E191E00E94BD0268EB7BE080E090E024
:100720000E94420100E010E08BE391E00E941B0276
:1007300062E08BE391E00E94230280E291E00E945C
:10074000BD0264EF71E080E090E00E944201C0E1F0
:10075000D0E06CE18BE391E00E9418026AEF70E058
:1007600080E090E00E944201219799F7C0E1D0E03B
:1007700068E18BE391E00E9418026AEF70E080E08C
:1007800090E00E944201219799F768EE73E080E0C3
:1007900090E00E9442018BE391E00E941B0262E024
:1007A0008BE391E00E9423028AE291E00E94BD0265
:1007B00060ED77E080E090E00E94420101151105B4
:1007C00009F4B2CF0E940000AFCFEBE3F1E0138257
:1007D000128284E091E09183808389E084838FEFAB
:1007E000858388E0868387E0878386E0808785E04D
:1007F000818784E08287138614861586168617867D
:1008000061E0CF010C942302EE0FFF1F0590F491DD
:10081000E02D099481E090E0F8940C940F04F89492
:02082000FFCF08
:10082200000000001202A60048454C4C4F20574FD2
:10083200524C4400454C454354524F4E4943530099
:100842005468616E6B20596F7500476F6F646279EF
:0208520065003F
:00000001FF
